:200000000C94A7130C94D8130C94D8130C94D8130C94D8130C94D8130C94D8130C94D813B9
:200020000C94D8130C94D8130C94D8130C94D8130C94D8130C94D8130C94D8130C94D81368
:200040000C94D8130C94718C0C94D8130C94D8130C94D8130C94D8130C94EC9F0C94A4518C
:200060000C94D8130C94523D0C94D8130C94D8130C94D8130C94D8130C94D8130C94D81384
:200080000C94D8130C94D8130C94D8130C94D8130C94D8130C94D8130C94D8130C94D81308
:2000A0000C94D8130C94D8130C94D8130C94D8130C94D8130C94D8130C94D8130C94D813E8
:2000C0000C94D8130C94D8130C94D8130C94D8130C94D8130C94D8130C94D8130C94D813C8
:2000E0000C94D813934F964F854F894F8F4FCD4F9A4F9E4FA44FA84FAC4FB24FB64FBA4F3E
:20010000CD4FC04FC44FC84FC050C550CA50D450DE505751E850F050F85002510C5116517A
:2001200025512F515751395143514D5150A060A07FA08FA0AAA0AFA0B2A0B7A0BAA0BFA02C
:20014000C2A0C7A0D1A0084AD73B3BCE016E84BCBFFDC12F3D6C74319ABD56833DDA3D00CB
:20016000C77F11BED9E4BB4C3E916BAAAABE000000803F05A84CCDB2D44EB93836A9020C23
:2001800050B9918688083CA6AAAA2ABE000000803F0047322F4733206261642070617261A5
:2001A0006D65746572730A00536C6565702E2E2E00473930004731205A2D323000206C6500
:2001C00076656C5F6265645F76616C75653A0020453A00205A3A0020593A00583A00473386
:2001E0003000473238004732380047323900473238004D383838004732380047323900476B
:20020000323800473239206E6577205A5F6F66667365743A0028422961636B0028462972F3
:200220006F6E74002852296967687400284C296566740052756E6E696E6720696E204452B4
:20024000592D52554E206D6F64650A00473239204175746F20426564204C6576656C696ECF
:20026000670A003F2856296572626F7365204C6576656C20697320696D706C6175736962AD
:200280006C652028302D34292E0A00473330206E6577205A5F6F66667365743A00506C6584
:2002A00061736520736574205A5F6F66667365743A00205A5F4D41585F504F533A20002075
:2002C0006C6576656C5F6265645F763A2000205A3A200020593A200042656420583A2000C9
:2002E00047323800416E7963756269632072656164792E00526573756D696E672070726907
:200300006E74005761697420666F7220757365722E2E2E004E6F206D6F76652E00456E64BD
:200320002066696C65206C6973740A00426567696E2066696C65206C6973740A00534420D5
:200340007072696E74696E67206279746520004E6F74205344207072696E74696E670A00C1
:2003600046696C652064656C657465643A0044656C6574696F6E206661696C65642C204681
:20038000696C653A20006F70656E206661696C65642C2046696C653A2000256973002569DD
:2003A0006D20256973002569682025696D2025697300256964202569682025696D202569AC
:2003C000730025697920256964202569682025696D20256973005072696E742074696D6563
:2003E0003A200050726F7465637465642050696E0A004B494C4C45442E20006F6B0048651E
:200400006174696E6720646F6E652E003F0A0020573A0048656174696E672E2E2E00416EE2
:200420007963756269632072656164792E0042656420646F6E652E003F0A0020573A00429F
:2004400065642048656174696E672E007A5F6D61783A20007A5F6D696E3A2000795F6D612F
:20046000783A2000785F6D61783A20005265706F7274696E6720656E6473746F7020737455
:20048000617475730A004D31343520533C696E6465783E206F7574206F662072616E67650F
:2004A0002028302D31290A0042696C696E6561722047726964206E6F74207965742063728F
:2004C00065617465640A00426564204C6576656C696E6720004661696C656420746F2065C1
:2004E0006E61626C6520426564204C6576656C696E670A004F666673657473206170706CC8
:20050000696564004572723A20546F6F206661722100546F6F206661722066726F6D207289
:2005200065666572656E636520706F696E740A000000000000000000000087433A20007A8C
:200540005F6D61783A20007A5F6D696E3A20005A204F6666736574004E6F206361736520AB
:200560006C696768740A004163746976652045787472756465723A2000556E6B6E6F776E40
:2005800020636F6D6D616E643A2022004E6F204C696E65204E756D626572207769746820F6
:2005A000636865636B73756D2C204C617374204C696E653A20004B494C4C45442E200053B0
:2005C000544F505045442E20005072696E7465722073746F707065642064756520746F207D
:2005E0006572726F72732E2046697820746865206572726F7220616E6420757365204D39D8
:20060000393920746F20726573746172742E202854656D70657261747572652069732072AE
:20062000657365742E205365742069742061667465722072657374617274696E67290A00CA
:200640004E6F20436865636B73756D2077697468206C696E65206E756D6265722C204C6144
:200660007374204C696E653A2000636865636B73756D206D69736D617463682C204C61735C
:2006800074204C696E653A20004C696E65204E756D626572206973206E6F74204C617374B2
:2006A000204C696E65204E756D6265722B312C204C617374204C696E653A20004D313130EC
:2006C000004D3331004D383420582059205A20450053442072656164206572726F720A0039
:2006E000446F6E65207072696E74696E672066696C650A0020496E76616C696420657874C7
:20070000727564657220000000D2420000D242000087430000D2C20000D2C200000000205D
:2007200064667361663A2000205A3A200020593A200042656420583A2000203D3D3D3D00C3
:20074000202020200042696C696E656172204C6576656C696E6720477269643A0A20002073
:20076000706F736974696F6E206F7574206F662072616E67652E0A003F50726F62652000DB
:200780005374616E6461726420446576696174696F6E3A20002052616E67653A2000204D37
:2007A00061783A2000204D696E3A20004D65616E3A200046696E697368656421002072614F
:2007C0006E67653A2000206D61783A2000206D696E3A2000207369676D613A2000206D658A
:2007E000616E3A20003A207A3A2000206F662000205A00205900205800476F696E6720749A
:200800006F3A002C200050756C6C696E6720706F696E7420746F77617264732063656E74D0
:2008200065723A00436C6F636B776973650A00436F756E7465722D00204469726563746908
:200840006F6E3A2000202020616E676C653A20005374617274696E67207261646975733A72
:200860002000506F736974696F6E696E67207468652070726F62652E2E2E0A003F4E756D29
:20088000626572206F66206C65677320696E206D6F76656D656E74206E6F7420706C61759A
:2008A0007369626C652028302D3135292E0A003F2028582C5929206C6F636174696F6E2097
:2008C0006F757473696465206F662070726F626561626C65207261646975732E0A003F53E8
:2008E000616D706C652073697A65206E6F7420706C61757369626C652028342D3530292E57
:200900000A004D3438205A2D50726F6265205265706561746162696C697479205465737446
:200920000A003F566572626F7365204C6576656C206E6F7420706C61757369626C652028E6
:20094000302D34292E0A00656E7175657565696E672022005761726E696E673A20486F6DD9
:20096000696E672042756D702044697669736F72203C20310A000000A0400000A04000000E
:20098000A04000005243000052430000874301010100002110422063308440A550C660E794
:2009A00070088129914AA16BB18CC1ADD1CEE1EFF13112100273325222B5529442F772D699
:2009C00062399318837BB35AA3BDD39CC3FFF3DEE36224433420040114E664C774A4448559
:2009E000546AA54BB528850995EEE5CFF5ACC58DD55336722611163006D776F6669556B419
:200A0000465BB77AA719973887DFF7FEE79DD7BCC7C448E5588668A77840086118022823D8
:200A200038CCC9EDD98EE9AFF9488969990AA92BB9F55AD44AB77A966A711A500A333A1298
:200A40002AFDDBDCCBBFFB9EEB799B588B3BBB1AABA66C877CE44CC55C222C033C600C4158
:200A60001CAEED8FFDECCDCDDD2AAD0BBD688D499D977EB66ED55EF44E133E322E511E7018
:200A80000E9FFFBEEFDDDFFCCF1BBF3AAF599F788F8891A981CAB1EBA10CD12DC14EF16FF1
:200AA000E18010A100C230E3200450254046706760B9839893FBA3DAB33DC31CD37FE35EB8
:200AC000F3B1029012F322D2323542145277625672EAB5CBA5A89589856EF54FE52CD50D38
:200AE000C5E234C324A01481046674476424540544DBA7FAB79987B8975FE77EF71DC73C38
:200B0000D7D326F2369106B01657667676154634564CD96DC90EF92FE9C899E9898AB9ABB7
:200B2000A94458654806782768C018E1088238A3287DCB5CDB3FEB1EFBF98BD89BBBAB9AB7
:200B4000BB754A545A376A167AF10AD01AB32A923A2EFD0FED6CDD4DCDAABD8BADE89DC937
:200B60008D267C076C645C454CA23C832CE01CC10C1FEF3EFF5DCF7CDF9BAFBABFD98FF837
:200B80009F176E367E554E745E932EB23ED10EF01E7C3C3E5E2B3D3F2F5B5D3B2C2A225C79
:200BA00000436172642072656D6F766564004361726420696E736572746564000000210090
:200BC000240027002A002D003000330001010000040107010A0100002200250028002B005C
:200BE0002E003100340002010000050108010B01000020002300260029002C002F00320025
:200C00000001000003010601090105050505070508080808020202020A0A08080404040442
:200C200001010101010101010303030303030303040707070C0C0C0C0C0C0C0C0202020213
:200C400006060606060606060B0B0B0B0B0B0B0B0102102020080810204010204080020146
:200C60000201080402010102040810204080804020100804020180040201804020100804E1
:200C80000201080402010102040810204080010204081020408000000A0B02090C0D0E08F5
:200CA000070304010000000000000000000000000000000000000000000000000000000025
:200CC000000012111000000000000000000000000000000000000000000000005072656852
:200CE00065617420504C4120426564005072656865617420504C41005072657061726500FD
:200D000053746F7265004D3835372046005A202D20302E31004D3835372041005A202B2002
:200D2000302E310050726570617265204C6576656C696E6700473336004D6561737572657D
:200D4000205A20506F73004D61696E004733330053746F7265005A204F6666736574005A4D
:200D6000204F6666736574004E6577205A204F6666736574004E6577205A204F666673650A
:200D8000740047333500426567696E204C6576656C696E67004175746F204C6576656C69DB
:200DA0006E672042656400507265686561742041425320426564005072656865617420411F
:200DC0004253005072657061726500436F6F6C646F776E00507265686561742041425300AB
:200DE0005072656865617420504C41004D38340044697361626C652073746570706572732A
:200E0000004D6F7665206178697300473238004175746F20686F6D65004D61696E004D6F12
:200E200076652058004D6F76652059004D6F7665205A004578747275646572004578747248
:200E400075646572004D6F7665205A004D6F76652059004D6F76652058004D6F766520619A
:200E6000786973004572726F722077726974696E6720746F20454550524F4D210A00206258
:200E800079746573290A0053657474696E67732053746F726564202800454550524F4D2048
:200EA000636865636B73756D206D69736D617463680A00206279746573290A002073746F6F
:200EC0007265642073657474696E6773207265747269657665642028004D6F766520302EFF
:200EE000316D6D004D6F766520316D6D004D6F76652031306D6D0050726570617265005212
:200F00006573746F7265206661696C73616665004C6F6164206D656D6F72790053746F7203
:200F200065206D656D6F72790046696C616D656E74004D6F74696F6E0054656D706572611F
:200F400074757265004D61696E00507265686561742041425320636F6E66005072656865D3
:200F6000617420504C4120636F6E66005049442D44005049442D44005049442D4900504951
:200F8000442D49005049442D50005049442D50002002204661637400200220466163740063
:200FA0002002204D6178002002204D6178002002204D696E002002204D696E004F6666007A
:200FC0004F6E20004175746F74656D700046616E2073706565640046616E20737065656459
:200FE0000042656400426564004E6F7A7A6C65004E6F7A7A6C6500436F6E74726F6C0053A3
:20100000746F7265206D656D6F72790042656400426564004E6F7A7A6C65004E6F7A7A6CA8
:20102000650046616E2073706565640046616E2073706565640054656D7065726174757296
:20104000650025753A2530327500253032753A25303275002D2D2D005344005A0059005800
:20106000000120000120007061757365004E6F2053442063617264005072696E74206672DD
:201080006F6D2053440053746F70207072696E7400526573756D65207072696E740050615B
:2010A000757365207072696E7400436F6E74726F6C004175746F204C6576656C696E6720A6
:2010C00042656400507265706172650054756E6500496E666F2073637265656E00466C6F4D
:2010E0007700466C6F770046616E2073706565640046616E20737065656400426564004208
:201100006564004E6F7A7A6C65004E6F7A7A6C65005370656564005370656564004D616909
:201120006E0046696C2E204469612E0046696C2E204469612E004F6666004F6E200045209A
:20114000696E206D6D3300436F6E74726F6C0043616E6E6F7420656E74657220737562643B
:2011600069723A2000052E2E004D61696E004B494C4C45442E2000202D20496E76616C6981
:2011800064206578747275646572206E756D62657220210A00414E59435542494320504C5A
:2011A00055530057656C636F6D650057656C636F6D650020312E312E30002020506C616E16
:2011C0006E657242756666657242797465733A20002046726565204D656D6F72793A20007A
:2011E000436F6D70696C65643A204F637420313320323031370A00207C20417574686F729B
:201200003A2028414E59435542494320504C55532C20323031372F392F3138290A003230EF
:2012200031362D31322D30362031323A303000204C61737420557064617465643A200031E1
:201240002E312E300A004D61726C696E0020536F6674776172652052657365740A00205755
:2012600061746368646F672052657365740A002042726F776E206F75742052657365740A9A
:20128000002045787465726E616C2052657365740A00506F77657255700A007374617274B4
:2012A0000A004731205A2B323000473931006572726F722077726974696E6720746F20661D
:2012C000696C650A00456E6473746F707320256320256320256320256300205A3A002059AD
:2012E0003A0020583A00656E6473746F7073206869743A2000446F6E6520736176696E67A5
:201300002066696C652E0A004D32390020453A00205A3A0020593A00583A004649524D5700
:201320004152455F4E414D453A4D61726C696E20312E312E30416E79637562696320534FBA
:20134000555243455F434F44455F55524C3A2050524F544F434F4C5F56455253494F4E3A07
:20136000312E30204D414348494E455F545950453A416E79637562696320455854525544C4
:2013800045525F434F554E543A3120555549443A63656465326132662D343161322D343759
:2013A00034382D396231322D6335356336326633363766660A0053657474696E6720547231
:2013C0006176656C20416363656C65726174696F6E3A200053657474696E67205265747286
:2013E00061637420416363656C65726174696F6E3A200053657474696E67205072696E7466
:2014000020416363656C65726174696F6E3A200053657474696E67205072696E7420616E8E
:20142000642054726176656C20416363656C65726174696F6E3A2000205A0020590058002B
:2014400020204D61783A2000205A00205900580020204D696E3A20004F666600536F66740C
:2014600020656E6473746F70733A200020643A0020693A0020703A0043290A0061626C652D
:201480006420286D696E2074656D702000436F6C64206578747275646573206172652000D8
:2014A00023646566696E65202044454641554C545F4B64200023646566696E6520204445D4
:2014C0004641554C545F4B69200023646566696E65202044454641554C545F4B7020005000
:2014E0004944204175746F74756E652066696E6973686564212050757420746865206C61B8
:201500007374204B702C204B6920616E64204B6420636F6E7374616E74732066726F6D20F6
:2015200062656C6F7720696E746F20436F6E66696775726174696F6E2E680A0050494420A3
:201540004175746F74756E65206661696C6564212074696D656F75740A00504944204175AC
:20156000746F74756E65206661696C6564212054656D706572617475726520746F6F20687E
:201580006967680A00204B643A2000204B693A2000204B703A20000A20436C617373696391
:2015A00020504944200A002054753A2000204B753A2000206D61783A2000206D696E3A2009
:2015C0000020643A200020626961733A200024F4D43050C38E20C2A24017828B7011127A62
:2015E000910D816CD90AA861E108C7586607615143061E4B5D05C145A7041A411104093DD2
:201600009803713931034036DB0265339102D4305402802E1D02632CEE01752AC501B028F1
:20162000A001102781018F2564012B244B01E0223401AC211F018D200D01801FFC00841E80
:20164000ED00971DDF00B81CD200E61BC600201BBC00641AB200B219A8000A19A0006A18BE
:201660009900D117910040178B00B516840031167E00B31579003A157300C7146F005814A9
:201680006A00EE1366008813630025135E00C7125B006C12570015125400C11151007011BD
:2016A0004F0021114B00D61049008D1047004610440002104200C00F4000800F3E00420F30
:2016C0003C00060F3B00CB0E3800930E37005C0E3500270E3400F30D3200C10D3100900DBF
:2016E0003000600D2E00320D2D00050D2C00D90C2B00AE0C2900850C29005C0C2700350CF8
:2017000027000E0C2600E80B2400C40B2400A00B23007D0B23005A0B2100390B2100180BD1
:201720002000F80A1F00D90A1E00BB0A1E009D0A1D00800A1D00630A1C00470A1B002C0AEE
:201740001B00110A1A00F7091A00DD091900C4091900AB091900920917007B0918006309B3
:2017600017004C09160036091600200916000A091500F5081500E0081400CC081400B80875
:201780001400A4081400900813007D0812006B081300580812004608120034081100230863
:2017A00011001208110001081100F0071000E0071000D0071000C0071000B0070F00A107A9
:2017C000100091070E0083070F0074070F0065070E0057070E0049070E003B070D002E0768
:2017E0000E0020070D0013070D0006070D00F9060C00ED060D00E0060C00D4060C00C806B5
:201800000C00BC060C00B0060C00A4060B0099060C008D060B0082060B0077060B006C06A1
:201820000B0061060A0057060B004C060A0042060A0038060A002E060A0024060A001A063C
:201840000A001006090007060A00FD050900F4050900EB050900E2050900D9050900D00596
:201860000900C7050900BE050900B5050800AD050800A50509009C050800940508008C05B4
:201880000800840508007C050800740508006C050700650508005D050700560508004E059C
:2018A0000700470507004005080038050700310507002A050700230507001C050600160559
:2018C00007000F0507000805060002050700FB040600F5040700EE040600E8040600E204F0
:2018E0000700DB040600D5040600CF040600C9040600C3040600BD040600B7040600B10467
:201900000500AC040600A6040600A00405009B04060095040500900406008A0405008504BA
:201920000500800406007A04050075040500700405006B04050066040500610405005C04F1
:20194000050057040500520405004D04050048040500430405003E0404003A040500350412
:201960000500300404002C04050027040400230405001E0404001A0404001604050011041E
:2019800004000D040400090405000404040000040400FC030400F8030400F4030400F00318
:2019A0000400EC030400E8030400E4030400E0030400DC030400D8030400D4030400D003FF
:2019C0000400CC030400C8030300C503030024F404D9201BC40C5C0E9804C4095F026507F7
:2019E0007101F405F900FB04B30048048700C10369005803550003034500BE023A00840256
:201A0000310053022A002902250004022000E4011C00C8011900AF011700980114008401C4
:201A20001300710110006101100051010E0043010D0036010B002B010B0020010B00150133
:201A400009000C01090003010800FB000800F3000800EB000700E4000600DE000600D800C5
:201A60000600D2000600CC000500C7000500C2000500BD000400B9000400B5000400B1003C
:201A80000400AD000400A9000400A5000300A20003009F0004009B00030098000300950026
:201AA000020093000300900003008D0002008B0003008800020086000200840003008100C4
:201AC00002007F0002007D0002007B00020079000200770001007600020074000200720034
:201AE0000100710002006F0002006D0001006C0002006A0001006900020067000100660081
:201B0000010065000100640002006200010061000100600001005F0002005D0001005C00B7
:201B200001005B0001005A00010059000100580001005700010056000100550001005400E1
:201B4000010053000000530001005200010051000100500001004F0001004E0000004E00FB
:201B600001004D0001004C0001004B0000004B0001004A000100490001004800000048000D
:201B8000010047000100460000004600010045000000450001004400010043000000430019
:201BA000010042000000420001004100000041000100400001003F0000003F0001003E001E
:201BC00000003E0001003D0000003D0001003C0000003C0000003C0001003B0000003B0020
:201BE00001003A0000003A000100390000003900010038000000380000003800010037001C
:201C0000000037000100360000003600000036000100350000003500000035000100340015
:201C200000003400000034000100330000003300000033000100320000003200000032000B
:201C400001003100000031000000310001003000000030000000300001002F0000002F0000
:201C600000002F0000002F0001002E0000002E0000002E0001002D0000002D0000002D00F3
:201C800000002D0001002C0000002C0000002C0000002C0001002B0000002B0000002B00E4
:201CA00000002B0001002A0000002A0000002A0000002A00010029000000290000002900D4
:201CC0000000290000002900010028000000280000002800000028000000280001002700C1
:201CE0000000270000002700000027000000270001002600000026000000260000002600AF
:201D0000000026000100250000002500000025000000250000002500000025000100240099
:201D2000000024000000240000002400000024000100230000002300000023000000230086
:201D400000002300000023000000230001002200000022000000220000002200000022006F
:201D6000000022000100210000002100000021000000210000002100000021000000210059
:201D8000010020000000200000002000000020000000200000002000000020000000200042
:201DA00001001F0000001F0000001F0000001F0000001F0000001F0000001F0001001E002A
:201DC00000001E0000001E0000001E0000004D383420582059205A2045006175746F2569D9
:201DE0002E67004D3234004D32332025730057726974696E6720746F2066696C653A200030
:201E00006F70656E206661696C65642C2046696C653A20006F70656E206661696C65642C02
:201E20002046696C653A200046696C652073656C65637465640A002053697A653A2000465A
:201E4000696C65206F70656E65643A20006F70656E206661696C65642C2046696C653A20F6
:201E6000002066696C653A20004E6F7720002220706F73002220706172656E743A220053E5
:201E80005542524F5554494E452043414C4C207461726765743A22004B494C4C45442E2043
:201EA00000747279696E6720746F2063616C6C207375622D67636F64652066696C657320DA
:201EC0007769746820746F6F206D616E79206C6576656C732E204D4158206C6576656C20C8
:201EE00069733A004572726F723A0043616E6E6F74206F70656E2073756264697220004743
:201F00003930004731205A2D32300070012C0190012701B0012201C0011D01F001180110B3
:201F200002130130020E016002090190020401C002FF000003FA004003F5008003F000D00E
:201F400003EB002004E6007004E100E004DC004005D700C005D2004006CD00D006C8008090
:201F600007C3003008BE00F008B900C009B400B00AAF00B00BAA00D00CA500000EA0005026
:201F80000F9B00C01096005012910000148C00C0158700B0178200B0197D00D01B78000050
:201FA0001E730040206E0090226900F024640040275F0090295A00E02B5500102E50002048
:201FC000304B0010324600E033410090353C001037370070383200A0392D00B03A2800A099
:201FE0003B2300603C1E00103D1900903D1400103E0F00703E0A00C03E0500003F000073B8
:20200000746F7000206669727374005A0059005800486F6D6520002066697273740A005AC5
:202020000059005800486F6D6520006563686F3A00726573657400205A3A0020593A0020C3
:20204000436F756E7420583A200028290A0053746F7077617463683A3A006265640A002CB8
:202060002073797374656D2073746F7070656421204865617465725F49443A200045727273
:202080003A204D494E54454D50004D494E54454D5020747269676765726564004572723A72
:2020A000204D415854454D5020424544004572723A204D415854454D50004D415854454D8E
:2020C00050207472696767657265640020746F6F206C6F6E6720657874727573696F6E2060
:2020E00070726576656E7465640A0020636F6C6420657874727573696F6E207072657665F4
:202100006E7465640A004B494C4C45442E20004B494C4C45442E2000506C65617365207218
:2021200065736574005052494E5445522048414C544544005072696E7465722068616C744B
:2021400065642E206B696C6C28292063616C6C6564210A004573746570732F6D6D00457386
:20216000746570732F6D6D005A73746570732F6D6D005A73746570732F6D6D0059737465D1
:2021800070732F6D6D005973746570732F6D6D005873746570732F6D6D00587374657073AB
:2021A0002F6D6D00412D74726176656C00412D74726176656C00412D7265747261637400BB
:2021C000412D7265747261637400416D6178204500416D6178204500416D6178205A004182
:2021E0006D6178205A00416D6178205900416D6178205900416D6178205800416D61782079
:2022000058005654726176206D696E005654726176206D696E00566D696E00566D696E0084
:20222000566D6178204500566D6178204500566D6178205A00566D6178205A00566D6178D4
:20224000205900566D6178205900566D6178205800566D617820580056652D6A65726B0034
:2022600056652D6A65726B00567A2D6A65726B00567A2D6A65726B0056792D6A65726B00D0
:2022800056792D6A65726B0056782D6A65726B0056782D6A65726B00416363656C004163CC
:2022A00063656C005A204F6666736574005A204F666673657400436F6E74726F6C00737460
:2022C0006172740053442063617264206F6B0A006F70656E526F6F74206661696C65640A7D
:2022E00000766F6C756D652E696E6974206661696C65640A00534420696E6974206661691A
:202300006C0A0020746F6F206C6F6E6720657874727573696F6E2070726576656E74656407
:202320000A0020636F6C6420657874727573696F6E2070726576656E7465640A00486172AE
:2023400064636F6465642044656661756C742053657474696E6773204C6F616465640A0051
:2023600020204D383531205A005A2D50726F6265204F666673657420286D6D293A0A002003
:20238000204D3230302044300A0020204D3230302044002044697361626C65640A0046692C
:2023A0006C616D656E742073657474696E67733A0020440020490020204D33303120500073
:2023C0005049442073657474696E67733A0A0020460020420020480020204D313435205381
:2023E000004D6174657269616C2068656174757020706172616D65746572733A0A0020430C
:202400000020420020410020530020520020204D363635204C0044656C74612073657474B0
:20242000696E67733A204C3D646961676F6E616C5F726F642C20523D7261646975732C2076
:20244000533D7365676D656E74735F7065725F7365636F6E642C204142433D646961676FB2
:202460006E616C5F726F645F7472696D5F746F7765725F5B3132335D0A00205A0020590028
:2024800020204D363636205800456E6473746F702061646A7573746D656E7420286D6D290E
:2024A0003A0A0020204D3432302053004175746F20426564204C6576656C696E673A0A00E4
:2024C000205A0020590020204D323036205800486F6D65206F666673657420286D6D290AE7
:2024E00000204500205A0020590020580020420020540020204D3230352053004164766123
:202500006E636564207661726961626C65733A20533D4D696E206665656472617465202892
:202520006D6D2F73292C20543D4D696E2074726176656C20666565647261746520286D6DC5
:202540002F73292C20423D6D696E696D756D207365676D656E742074696D6520286D7329B6
:202560002C20583D6D6178696D756D205859206A65726B20286D6D2F73292C20205A3D6D82
:202580006178696D756D205A206A65726B20286D6D2F73292C2020453D6D6178696D756D8B
:2025A0002045206A65726B20286D6D2F73290A0020540020520020204D3230342050004139
:2025C0006363656C65726174696F6E733A20503D7072696E74696E672C20523D7265747215
:2025E00061637420616E6420543D74726176656C0A00204500205A0020590020204D3230C0
:20260000312058004D6178696D756D20416363656C65726174696F6E20286D6D2F7332292A
:202620003A0A00204500205A0020590020204D3230332058004D6178696D756D2066656536
:2026400064726174657320286D6D2F73293A0A00204500205A0020590020204D39322058FE
:202660000053746570732070657220756E69743A0A00434F4D4D554E49434154494F4E00EA
:2026800044525952554E004552524F525300494E464F004543484F00506C65617365207341
:2026A0006574205A5F6F66667365743A0048656174696E672E2E2E00416E7963756269632F
:2026C0002072656164792E002042403A0020403A00202F0020423A00202F0020543A0093A6
:2026E000268E268726802672266F66660044454255473A00416E796375626963204F6666D0
:202700002E00526573656E643A20006F6B004E414E494E495459494E46CDCCCC3D0AD72309
:202720003C17B7D13877CC2B329595E6241FB14F0A000020410000C84200401C4620BCBEE2
:202740004CCA1B0E5AAEC59D74005DDCCFD511241FBECFEFD1E2DEBFCDBF00E00CBF14E034
:20276000A0E0B2E0ECE2F9ED01E00BBF02C007900D92A43BB107D9F724E1A4EBB4E001C0A0
:202780001D92A13CB207E1F713E1C6EAD3E100E006C021970109802FFE010E9442E0C53AEB
:2027A000D10780E00807A9F70E9446D70C9484EC0C9400002F923F924F925F926F927F924D
:2027C0008F929F92AF92BF92CF92DF92EF92FF920F931F93CF93DF93CDB7DEB7C059D109FD
:2027E0000FB6F894DEBF0FBECDBF0091FA0820E6029F800111240658184F1093D6040093CD
:20280000D50480910F1380FF18C0EBE2F0E284917F013FEFE31AF30A882321F00E94B738AC
:20282000F701F5CFD8018D918D01882319F00E94B738F8CF8AE00E94B7382091D504309105
:20284000D604F90180812F5F3F4F8032D1F3F093D604E093D5048E3469F0F090D504E09084
:20286000D6046AE270E08F2D9E2D0E9477E30097D1F420C0818190ED980F9A3010F08D3274
:2028800061F73296DF0131962C9120532A30D0F3CD01FC01019620812032D9F3F093D604A6
:2028A000E093D504DACFFC0131968291803231F08A3221F0AF2DBE2D9D9102C01082F5CF9F
:2028C000FD01808111968032D9F380538A3010F00C94053320E030E06AE0629FA001639F71
:2028E000500D11249A01205331098191280F311D87FD3A95808180538A3078F38F013196C4
:20290000D8018C918032D1F31093C3040093C2049D3411F40C940624943511F40C94A832A0
:20292000973411F00C9405332E31310511F40C94E021B8F42430310538F48091920222305F
:20294000310508F444C04DC02C31310509F4ACC610F00C942B1D2430310509F449C60C9414
:20296000D2322832310509F481C6C8F42332310511F40C94DF1C2432310511F40C94091D41
:202980002132310511F00C94D23280EE92E09093D10F8093D00F0E9471360C94D2322A35E8
:2029A000310511F40C94462330F42932310509F461C60C94D2322B35310511F40C944A23AE
:2029C0002C35310511F40C944F230C94D232882311F40C94D2320E949B3D0E94F5A70C94F9
:2029E000D232882311F40C94D23211E02230310509F010E00E949B3D82E50E948635882334
:202A000009F45CC10E9423366B017C014090FF1350900014609001147090021420910314FF
:202A200030910414409105145091061461962CAF3DAF4EAF5FAF61978091EF139091F013E0
:202A4000A091F113B091F21369968CAF9DAFAEAFBFAF69972091F3133091F4134091F51352
:202A60005091F6136D962CAF3DAF4EAF5FAF6D9720E030E0A901C701B6010E944CE88823D9
:202A800009F49CC5A301920169966CAD7DAD8EAD9FAD69970E944CE8811111C061962CADCF
:202AA0003DAD4EAD5FAD61976D966CAD7DAD8EAD9FAD6D970E944CE8882309F47FC520E09A
:202AC00030E0A901C701B6010E944CE8881F8827881F18130BC080E090E0A0E8BFE3A996BB
:202AE0008CAF9DAFAEAFBFAFA9970AC020E030E040E85FEBA9962CAF3DAF4EAF5FAFA997A7
:202B0000A301920169966CAD7DAD8EAD9FAD69970E944AE0A5966CAF7DAF8EAF9FAFA597A0
:202B200061962CAD3DAD4EAD5FAD61976D966CAD7DAD8EAD9FAD6D970E944AE0A1966CAFED
:202B40007DAF8EAF9FAFA197A5962CAD3DAD4EAD5FADA597CA01B9010E94B1E84B015C01DC
:202B6000A1962CAD3DAD4EAD5FADA197CA01B9010E94B1E89B01AC01C501B4010E944BE0CB
:202B80000E94DCE265966CAF7DAF8EAF9FAF659720E030E040E05FE30E94B1E84B015C01B6
:202BA000A7019601C701B6010E94B1E86B017C01A5019401C501B4010E94B1E89B01AC01F9
:202BC000C701B6010E944AE00E94DCE29B01AC01A9966CAD7DAD8EAD9FADA9970E94B1E87D
:202BE0004B015C0169962CAD3DAD4EAD5FAD6997C301B2010E944BE020E030E040E05FE3AD
:202C00000E94B1E86B017C01A1966CAD7DAD8EAD9FADA197905865962CAD3DAD4EAD5FADAA
:202C200065970E9437E19B01AC01C501B4010E94B1E89B01AC01C701B6010E944BE0A301A6
:202C400092010E944AE06B017C016D962CAD3DAD4EAD5FAD6D9761966CAD7DAD8EAD9FAD9A
:202C600061970E944BE020E030E040E05FE30E94B1E82B013C0165962CAD3DAD4EAD5FADB4
:202C80006597A5966CAD7DAD8EAD9FADA5970E9437E19B01AC01C501B4010E94B1E89B01A2
:202CA000AC01C301B2010E944BE061962CAD3DAD4EAD5FAD61970E944AE014C089E40E94BB
:202CC0008635882329F00E9423366B017C0103C0C12CD12C76018AE40E9486358823F9F00E
:202CE0000E94233661966CAF7DAF8EAF9FAF619720E030E0A901C701B6010E944CE8811177
:202D00001EC020E030E0A90161966CAD7DAD8EAD9FAD61970E944CE8811111C04FC420E016
:202D200030E0A901C701B6010E944CE8882309F445C461961CAE1DAE1EAE1FAE6197A7010E
:202D40009601C701B6010E94B1E84B015C0161962CAD3DAD4EAD5FAD6197CA01B9010E9499
:202D6000B1E89B01AC01C501B4010E944BE00E94DCE2ED966CAF7DAF8EAF9FAFED978091DF
:202D8000FF1390910014A0910114B09102146D968CAF9DAFAEAFBFAF6D97A7019601BC01FA
:202DA000CD010E944BE0E1966CAF7DAF8EAF9FAFE19720910314309104144091051450914B
:202DC0000614A5962CAF3DAF4EAF5FAFA59761962CAD3DAD4EAD5FAD6197A5966CAD7DAD59
:202DE0008EAD9FADA5970E944BE0E5966CAF7DAF8EAF9FAFE5978091071490910814A091E0
:202E00000914B0910A14A9968CAF9DAFAEAFBFAFA9979C01AD016091F7137091F813809102
:202E2000F9139091FA130E944AE065966CAF7DAF8EAF9FAF65972091FB133091FC13409163
:202E4000FD135091FE13CF57DF4F288339834A835B83C158D04080910B1490910C14A0913F
:202E60000D14B0910E14AD968CAF9DAFAEAFBFAFAD97A7019601505869962CAF3DAF4EAF4B
:202E80005FAF699761964CAC5DAC6EAC7FAC619777FA709477F870948091EF139091F013D0
:202EA000A091F113B091F213A1968CAF9DAFAEAFBFAFA197E1962CAD3DAD4EAD5FADE1971D
:202EC000BC01CD010E944AE06B017C012091F3133091F4134091F5135091F613E9962CAF16
:202EE0003DAF4EAF5FAFE997E5962CAD3DAD4EAD5FADE597E9966CAD7DAD8EAD9FADE997D1
:202F00000E944AE04B015C01A701960169966CAD7DAD8EAD9FAD69970E94B1E8C358DF4FB0
:202F2000688379838A839B83CD57D040A5019401C301B2010E94B1E89B01AC01C358DF4FCC
:202F4000688179818A819B81CD57D0400E944BE0C358DF4F688379838A839B83CD57D040D7
:202F6000A501940169966CAD7DAD8EAD9FAD69970E94B1E84B015C01A7019601C301B201B3
:202F80000E94B1E89B01AC01C501B4010E944AE0C358DF4F288139814A815B81CD57D040DF
:202FA0000E94C9E06B017C0120E030E0A9010E944CE887FF0AC02BED3FE049EC50E4C70195
:202FC000B6010E944BE06B017C01112351F02BED3FE049EC50E4C701B6010E944AE06B01B8
:202FE0007C0120E030E0A901C701B6010E944CE881112AC0A1962CAD3DAD4EAD5FADA19790
:203000006D966CAD7DAD8EAD9FAD6D970E944CE881111AC0E9962CAD3DAD4EAD5FADE997D4
:20302000A5966CAD7DAD8EAD9FADA5970E944CE881110AC02BED3FE049EC50E4C701B601FE
:203040000E944BE06B017C01ED962CAD3DAD4EAD5FADED97C701B6010E94B1E89B01AC01E6
:203060000E94B1E84B015C0165962CAD3DAD4EAD5FAD6597CA01B9010E94B1E89B01AC01A2
:20308000C501B4010E944BE00E94DCE24B015C012FE632E143E85AE30E944CE887FD8AC2A9
:2030A000C501B4010E94DDE10E94AEE16F967FAF6EAF6F97672B31F481E090E06F969FAFD3
:2030C0008EAF6F976F96AEADBFAD6F97BD0180E090E00E9450E84B015C019B01AC01C701B9
:2030E000B6010E9437E16D966CAF7DAF8EAF9FAF6D97A501940165966CAD7DAD8EAD9FAD86
:2031000065970E9437E1CB57DF4F688379838A839B83C558D040AD962CAD3DAD4EAD5FAD5D
:20312000AD97CF57DF4F688179818A819B81C158D0400E944AE0A50194010E9437E1C757E5
:20314000DF4F688379838A839B83C958D0406D962CAD3DAD4EAD5FAD6D97CA01B9010E9406
:20316000B1E820E030E040E05FE30E94B1E89B01AC0160E070E080E89FE30E944AE0E996FB
:203180006CAF7DAF8EAF9FAFE997A9962CAD3DAD4EAD5FADA99729873A874B875C87AD962B
:2031A0008CAD9DADAEADBFADAD978D879E87AF87B88B6091E1027091E202072E000C880B42
:2031C000990B0E9452E82091E3023091E4024091E5025091E6020E94B1E82AE037ED43E223
:2031E0005CE30E94B1E8ED966CAF7DAF8EAF9FAFED970E9498519B01AC0128533F4F4F4F01
:203200005F4FCF57DF4F288339834A835B83C158D04066963FAD669762963FAF62976796B0
:203220004FAD6797A2964FAFA29768962FAC689769963FAC699781E090E0AB969FAF8EAFC6
:20324000AB97A6961FAEA697AB96EEADFFADAB976F962EAD3FAD6F97E217F30709F46AC12F
:203260000E944AA20E949851DC01CB01CF57DF4F288139814A815B81C158D040821B930BCA
:20328000A40BB50BB7FD12C00E9498519B01AC0128533F4F4F4F5F4FCF57DF4F2883398355
:2032A0004A835B83C158D0400E94B2A5A6963FADA6973F5FA6963FAFA69739310CF04EC063
:2032C000E9962CAD3DAD4EAD5FADE997C301B2010E94B1E86B017C016D962CAD3DAD4EADC9
:2032E0005FAD6D9762966FAD6297A2967FADA297C1010E94B1E8A70196010E944BE07B018F
:203300008C01E9962CAD3DAD4EAD5FADE99762966FAD6297A2967FADA297C1010E94B1E8B0
:203320004B015C016D962CAD3DAD4EAD5FAD6D97C301B2010E94B1E89B01AC01C501B4019D
:203340000E944AE062966FAF6297A2967FAFA2971C01C701D8012C013D0161C0AB964EAD6D
:203360005FADAB97BA0180E090E00E9450E86D962CAD3DAD4EAD5FAD6D970E94B1E84B0142
:203380005C010E9434E16B017C01C501B4010E94D1E24B015C01A701960169966CAD7DAD36
:2033A0008EAD9FAD69970E94B1E82B013C01A501940161966CAD7DAD8EAD9FAD61970E944C
:2033C000B1E89B01AC01C301B2010E944BE062966FAF6297A2967FAFA2971C01A5019401C1
:2033E00069966CAD7DAD8EAD9FAD69970E94B1E84B015C01A701960161966CAD7DAD8EAD6C
:203400009FAD61970E94B1E89B01AC01C501B4010E944AE02B013C01A6961FAEA6976296F6
:203420002FAD6297A2963FADA297A101E1966CAD7DAD8EAD9FADE1970E944BE06B017C0149
:2034400069837A838B839C83A3019201E5966CAD7DAD8EAD9FADE5970E944BE0C358DF4F48
:20346000688379838A839B83CD57D0406D837E838F83988729853A854B855C85CB57DF4F76
:20348000688179818A819B81C558D0400E944BE04B015C0169877A878B879C87C757DF4F0D
:2034A000288139814A815B81C958D0406D857E858F8598890E944BE06D877E878F87988BA8
:2034C0001091EE13C8A2D9A2EAA2FBA2C358DF4F88819981AA81BB81CD57D0408CA39DA3C6
:2034E000AEA3BFA388A699A6AAA6BBA6CE0180960E942E38CE0180960E9454CDC12EED96F4
:20350000ECACFDAC0EAD1FADED979E01235F3F4F47E154E163E174E18FE094E10E94D4B8A8
:20352000AB96AEADBFADAB971196AB96BFAFAEAFAB978ACEC090EE138091EF139091F0136C
:20354000A091F113B091F21388A399A3AAA3BBA38091F3139091F413A091F513B091F6131C
:203560008CA39DA3AEA3BFA38091F7139091F813A091F913B091FA1388A799A7AAA7BBA735
:20358000CE0180960E942E38CE0180960E9454CDED96ECACFDAC0EAD1FADED972BEF33E199
:2035A00047E154E163E174E18FE094E10E94D4B80E947C350E9472380C94D232E4EEFEE10F
:2035C00084918F010F5F1F4F882321F00E94B738F801F6CFE2E9F1E084918F010F5F1F4F42
:2035E000882311F40C94D2320E94B738F801F4CF80E50E948635882329F00E9418366B0148
:203600007C0103C0C12CD12C760183E50E948635882321F00E944C366B017C010E94208C2D
:203620000E9472388091501390915113A0915213B0915313C80ED91EEA1EFB1E80914D02BA
:20364000811105C060E088EA91E00E943A560E949851DC01CB018C199D09AE09BF09B7FD0C
:2036600002C00C94D2320E94B2A5F1CF0E94CE730C94D2328091D20F882391F085EB91E0A5
:203680009093D10F8093D00F0E94713681EB91E09093D10F8093D00F0E9471361092D20F4E
:2036A0000E948CB60C94D2320E94208C80E00E943E3F8091E3029091E402A091E502B0915F
:2036C000E6028093B6049093B704A093B804B093B9048091E1029091E2029093B504809380
:2036E000B40484E690E09093E2028093E1020E94723881E08093470280E1EFEFF3E1DF013F
:203700001D928A95E9F70E94D63680E090E0ACE8B3E48093071490930814A0930914B09352
:203720000A148093031490930414A0930514B09306148093FF1390930014A0930114B09376
:20374000021440E050E060E772E44093E3025093E4026093E5027093E602C090EE13239616
:203760008CAF9DAFAEAFBFAF239727968CAF9DAFAEAFBFAF27972B968CAF9DAFAEAFBFAF5D
:203780002B977A018B012BE034E1AE01495B5F4FBE016D5B7F4FCE01CF960E94D4B80E94E6
:2037A000208C1092790780E090E00E946F4E81E090E00E946F4E82E090E00E946F4E63ED5B
:2037C000862E6FE0962E75E5A72E77E0B72EE0E3EE2EE5E0FE2EF2EE6F2EF3E17F2EA6ED56
:2037E000CA2EA3E1DA2EBFEF4B2EB3E15B2E00E010E0F40121E021934F01D5012D935D0143
:203800001601F60111921192119211926F01C8010E941937C7010E941337D3012D913D91CF
:203820004D915D913D010E944BE0F10120813181428153810E944BE0D2016D937D938D9305
:203840009D932D010F5F1F4FB4E0EB0EF11C0330110579F60E94D43680912214809347028D
:203860008091D404882369F01092D40419821A821B821C82BE016F5F7F4F80E092E00E94A0
:20388000BA340E947D3880918A050E943E3FEBEDF1E084918F010F5F1F4F882321F00E949C
:2038A000B738F801F6CF6091FF1370910014809101149091021442E00E94AB3CE7EDF1E096
:2038C00084918F010F5F1F4F882321F00E94B738F801F6CF60910314709104148091051411
:2038E0009091061442E00E94AB3CE3EDF1E084918F010F5F1F4F882321F00E94B738F8017A
:20390000F6CF60910714709108148091091490910A1442E00E94AB3CEFECF1E084918F0150
:203920000F5F1F4F882321F00E94B738F801F6CF60910B1470910C1480910D1490910E14FA
:2039400042E00E94AB3C8091C804811113C08091071490910814A0910914B0910A14809351
:20396000C4049093C504A093C604B093C70481E08093C804C090C404D090C504E090C604CD
:20398000F090C704C092D004D092D104E092D204F092D304EDEBF1E084918F010F5F1F4FB4
:2039A000882321F00E94B738F801F6CF42E0C701B6010E94AB3C0E9472A40C94D2328EEEFA
:2039C00091E09093D10F8093D00F0E9471368AEE91E09093D10F8093D00F0E94713686EE9D
:2039E00091E09093D10F8093D00F0E94713682EE91E09093D10F8093D00F0E9471368EED7E
:203A000091E09093D10F8093D00F0E9471360C94D2328FEF91E09093D10F8093D00F0E94CD
:203A200071368BEF91E09093D10F8093D00F0E94713687EF91E09093D10F8093D00F0E9438
:203A4000713682EF91E09093D10F8093D00F0E9471360C94D23281E08093D4040E94F29B80
:203A6000811191C486E50E948635882339F00E940036A3969FAF8EAFA39706C0E1E0F0E096
:203A8000A396FFAFEEAFA397A3962EAD3FADA3972530310568F0E3E6F2E084918F010F5F9D
:203AA0001F4F882309F46FC40E94B738F801F5CF84E40E94863566968FAF669785E40E9468
:203AC0008635E6968FAFE697A3964EAD5FADA397452BE9F0ECE4F2E084918F010F5F1F4F0E
:203AE000882321F00E94B738F801F6CF66965FAD6697552361F0E3E3F2E084918F010F5F42
:203B00001F4F882321F00E94B738F801F6CF83E50E948635882349F00E94233620E030E078
:203B200040E752E40E9437E104C060E070E088EC92E46093040270930502809306029093EF
:203B400007028CE40E948635882319F00E94233618C020E030E04CEB52E46091E2137091A4
:203B6000E3138091E4139091E5130E944AE02091D6133091D7134091D8135091D9130E94F2
:203B80004BE00E94A8E12F967FAF6EAF2F9782E50E948635882319F00E94233618C020E0AE
:203BA00030E04CEC52E46091E2137091E3138091E4139091E5130E944BE02091D613309161
:203BC000D7134091D8135091D9130E944BE00E94A8E18B0186E40E948635882319F00E94D1
:203BE000233618C020E030E04EEA52E46091E6137091E7138091E8139091E9130E944AE03C
:203C00002091DA133091DB134091DC135091DD130E944BE00E94A8E11B0182E40E948635EF
:203C2000882319F00E94233618C020E030E042EB52E46091E6137091E7138091E813909178
:203C4000E9130E944BE02091DA133091DB134091DC135091DD130E944BE00E94A8E16B96C4
:203C60007FAF6EAF6B972F96AEADBFAD2F97BD01BB0F880B990B0E9452E8A9966CAF7DAF84
:203C80008EAF9FAFA9978090E2139090E313A090E413B090E513C090D613D090D713E090EC
:203CA000D813F090D91320E030E042ED52E4C501B4010E944AE0A70196010E944BE09B0149
:203CC000AC01A9966CAD7DAD8EAD9FADA9970E944CE887FD11C0B1E0AE96BFAFAE97C80172
:203CE00043972F96EEADFFAD2F97E817F90744F4AE961FAEAE9704C0F1E0AE96FFAFAE97BF
:203D0000B801012E000C880B990B0E9452E82B013C0120E030E042ED52E4C501B4010E94A1
:203D20004BE0A70196010E944BE09B01AC01C301B2010E9493E2181684F021E062962FAFFC
:203D400062972F968EAD9FAD2F9743968017910744F462961FAE629704C031E062963FAF9F
:203D60006297B101032C000C880B990B0E9452E8AD966CAF7DAF8EAF9FAFAD978090E613E8
:203D80009090E713A090E813B090E913C090DA13D090DB13E090DC13F090DD1320E030E038
:203DA00042ED52E4C501B4010E944AE0A70196010E944BE09B01AC01AD966CAD7DAD8EAD41
:203DC0009FADAD970E944CE887FD10C041E06E964FAF6E976B968EAD9FAD6B97439728165F
:203DE000390644F46E961FAE6E9704C051E06E965FAF6E976B96AEADBFAD6B97BD01BB0F18
:203E0000880B990B0E9452E82B013C0120E030E042ED52E4C501B4010E944BE0A70196012A
:203E20000E944BE09B01AC01C301B2010E9493E2FF24F394181654F0C10143966B96EEAD8B
:203E4000FFAD6B978E179F070CF4F12CAE96FFADAE97F11112C062962FAD6297222329F018
:203E600084E292E00E946CD511C06E963FAD6E9731110CC0F11013C01AC08CE292E00E9483
:203E80006CD562964FAD62974111EACF6E965FAD6E97552321F08CE192E00E946CD5FF206A
:203EA00009F471C285E192E00E946CD56CC20E94208C80911B1462968FAF629710921B145B
:203EC00066969FAD669791110AC00E9458AC8DE495E00E94EEC40E94654E0E94D4360E94AE
:203EE000963881E00E943335882331F06296AFAD6297A0931B1447C21BAE1CAE1DAE1EAEDB
:203F000018A219A21AA21BA22F96EEADFFAD2F970E1B1F0B17FF02C0095F1F4F53E0159503
:203F200007955A95E1F7B801012E000C880B990B0E9452E8E5966CAF7DAF8EAF9FAFE5974E
:203F40006B96EEACFFAC6B97E218F308F7FE03C0F7E0EF0EF11C43E0F594E7944A95E1F7AD
:203F6000B7010F2C000C880B990B0E9452E82B013C018AE50E94863581110E94233660917C
:203F8000D3067091D406072E000C880B990B0E9452E89B01AC01E5966CAD7DAD8EAD9FAD8B
:203FA000E5970E944CE8811125C06091D5067091D606072E000C880B990B0E9452E89B019F
:203FC000AC01C301B2010E944CE8811113C08091CF069091D0062F962EAD3FAD2F97281714
:203FE000390741F48091D1069091D2062816390609F452C062963FAD629730931B140E946E
:20400000713F1093D4060093D306F092D606E092D5062091E2133091E3134091E413509156
:20402000E513A9966CAD7DAD8EAD9FADA9970E944AE02091D6133091D7134091D813509191
:20404000D9130E944AE00E94A8E17093D0066093CF062091E6133091E7134091E8135091CA
:20406000E913AD966CAD7DAD8EAD9FADAD970E944AE02091DA133091DB134091DC13509139
:20408000DD130E944AE00E94A8E17093D2066093D10662961FAE629741E06A964FAF6A97B6
:2040A0002F961FAE1EAE2F9751E06E965FAF6E9789E0AE968FAFAE97312CDE0111962D96BE
:2040C000BFAFAEAF2D9781E06A964FAD6A9748276A964FAF6A972F968EAD9FAD2F97092E3C
:2040E000000CAA0BBB0BED968CAF9DAFAEAFBFAFED97AE962FADAE97321609F4D6C0632D10
:20410000032C000C770B880B990B0E9452E89B01AC01E5966CAD7DAD8EAD9FADE5970E9423
:20412000B1E89B01AC01A9966CAD7DAD8EAD9FADA9970E944BE06B017C01ED966CAD7DADD8
:204140008EAD9FADED970E9452E89B01AC01C301B2010E94B1E89B01AC01AD966CAD7DADAE
:204160008EAD9FADAD970E944BE04B015C0120E030E0A901C701B6010E944CE887FD05C0A6
:2041800020E030E040E05FE303C020E030E0A901C701B6010E944BE00E94DDE16B017C019B
:2041A0006BAF7CAF8DAF9EAF20E030E0A901C501B4010E944CE887FD05C020E030E040E0AD
:2041C0005FE303C020E030E0A901C501B4010E944BE00E94DDE168A379A38AA39BA32D9623
:2041E000AEADBFAD2D97ECE01D92EA95E9F7C982DA82EB82FC826D837E838F839887CE01D7
:2042000001960E94A3B7882309F44AC0A3962EAD3FADA397E6964FADE697BE01605E7F4FDF
:20422000CE01CB960E94A83F29E0332D3203800111242F964EAD5FAD2F97040F151F000F89
:20424000111F000F111F05571A4F2091DA023091DB024091DC025091DD020E944BE0D801EA
:204260006D937D938D939C93139703E012E0F8018491882329F00F5F1F4F0E94B738F7CF5B
:204280006091DA027091DB028091DC029091DD0242E00E94AB3C8AE00E94B7380E94B2A5E5
:2042A0006E96FFAD6E973F0E24CF2F964EAD5FAD2F974F5F5F4F2F965FAF4EAF2F9749300C
:2042C0005105D1F06A96BFAD6A97B1110BC0EFEF6E96EFAF6E97FFEFAE96FFAFAE9738E00B
:2042E000332EF1CE21E06E962FAF6E9739E0AE963FAFAE97312CE7CE80E00E9433358823FF
:2043000031F062965FAD629750931B143CC00E947D3866968FAD6697811102C00E94A5D575
:204320000E94A53E66969FAD669791111BC081E080938A058FEF93E10E9470CF9B01AC0117
:2043400060910714709108148091091490910A140E944AE06093071470930814809309149E
:2043600090930A140E94258B6696AFAD6697AA2321F062968FAD629701C081E080931B14E6
:2043800081110E94D43681E0809323140E946D6264EF71E080E090E00E9460510E9472C91F
:2043A00064E670E080E090E00E9460510E94D66464E670E080E090E00E9460510C94D23203
:2043C00088E50E948635882319F00E9423360DC020E030E0A9016091FF13709100148091B4
:2043E0000114909102140E944BE06BAF7CAF8DAF9EAF89E50E948635882319F00E9423365C
:204400000DC020E030E0A901609103147091041480910514909106140E944BE068A379A39B
:204420008AA39BA30BAD1CAD2DAD3EAD09831A832B833C836D837E838F83988720E030E003
:20444000A9016091EA137091EB138091EC139091ED130E944BE02091DE133091DF134091A1
:20446000E0135091E1130E944BE069877A878B879C87CE0101960E94A3B7882311F40C94CF
:20448000D23283E50E948635882321F00E94C835482F01C041E080E0C057DF4F4883C05916
:2044A000D0400E943E3F0E94963821E030E0C057DF4F4881C059D040BE01605E7F4FCE01FB
:2044C000CB960E94A83F6B017C010E94258BE8EDF2E084918F010F5F1F4F882321F00E9431
:2044E000B738F801F6CF27E137EB41ED58E36BAD7CAD8DAD9EAD0E944BE042E00E94AB3C3E
:20450000E3EDF2E084918F010F5F1F4F882321F00E94B738F801F6CF27E137EB41ED58E3DA
:2045200068A179A18AA19BA10E944BE042E00E94AB3CEEECF2E084918F010F5F1F4F8823A1
:2045400021F00E94B738F801F6CF27E137EB41ED58E3C701B6010E944BE042E00E94AB3C71
:204560008AE00E94B738EFEBF2E084918F010F5F1F4F882321F00E94B738F801F6CF8090F8
:20458000D0049090D104A090D204B090D30427E137EB41ED58E3C501B4010E944BE042E038
:2045A0000E94AB3C8AE00E94B738E2EBF2E084918F010F5F1F4F882321F00E94B738F80111
:2045C000F6CF42E063E070E087E893E40E94AB3C8AE00E94B73820E030E047E853E4C501BB
:2045E000B4010E944AE0A70196010E944BE027E137EB41ED58E30E944BE09B01AC0160E045
:2046000070E0CB010E944AE060938005709381058093820590938305EDE9F2E084918F011F
:204620000F5F1F4F882321F00E94B738F801F6CF6091800570918105809182059091830555
:2046400042E00E94AB3C8AE00E94B738EBE8F2E084918F010F5F1F4F882321F00E94B73841
:20466000F801F6CF6091DA027091DB028091DC029091DD0242E00E94AB3C8AE00E94B7383C
:204680000E947D380E94258B0C94D2321092C1040C94D23281E08093C1040C94D23285E47C
:2046A0000E948635B82E811102C00E94208C1DE4812E13E0912E0FEFC02E03E1D02E86ED72
:2046C000E82E83E1F82E00E010E0A12CF40181914F010E948635882309F44CC0D6012D91A0
:2046E0003D914D915C91C357DF4F2883CD58D040C257DF4F3883CE58D040C057DF4F4883B1
:20470000C059D040C157DF4F5883CF58D0400E942336F6016083718382839383C357DF4FEC
:204720002881CD58D040C257DF4F3881CE58D040C057DF4F4881C059D040C157DF4F58810F
:20474000CF58D04003301105A9F00E944AE09B01AC01D7016D917D918D919C910E944BE02F
:20476000F7016083718382839383C8010E941937AA24A3940F5F1F4FF4E0CF0ED11C24E011
:20478000E20EF11C0430110509F0A0CFAA2019F00E94D43637C0BB20A9F1C0900B14D090B0
:2047A0000C14E0900D14F0900E1420917213309173134091741350917513C701B6010E9447
:2047C000B1E80E949EE260930E1070930F108093101090931110C701B6010E94A8E12FB7E4
:2047E000F89460930B1370930C1380930D1390930E132FBF1092FE0F1092FF0F1092001084
:20480000109201100E94258B0C94D2322537310511F40C94FF2C08F0D1C02B34310509F472
:2048200055C508F06BC02831310509F489C2D8F52231310511F40C94F32CD8F422303105F6
:2048400008F4BDC12131310511F00C94D23260E084E193E00E943A565F988A989FB7F8946C
:20486000809108018E7F809308019FBF12980C94D2322531310509F459C240F424313105E6
:2048800011F00C94D232ECE2F3E00DC22631310509F450C22731310511F00C94D2320E9492
:2048A000933D0C94D2322E31310509F4A2C298F42A31310509F453C208F448C22B313105C7
:2048C00009F45BC22C31310511F00C94D2320E948B3D0C94D2322032310509F49FC308F495
:2048E000E3C32A32310509F4A9C42033310511F00C94D2320E944F410C94D232293631057D
:2049000009F417C580F52335310511F40C94EF2CA0F42D34310509F4E1C408F4DBC421353D
:20492000310511F40C94EC2C2235310511F00C94D2321092C0040C94D2322535310511F4B3
:204940000C94F62C10F40C94F32C2C35310511F40C94F92C2836310511F00C94D2320E9496
:20496000EACC0C94D2322E36310509F4BBC490F42B36310511F40C94E92C10F40C94E62C3C
:204980002C36310509F4B6C42D36310509F4EBC40C94D2322037310509F4B0C408F4A6C4BB
:2049A0002237310511F40C94FC2C2337310511F00C94D2320E94158B0C94D2322E3241E0FF
:2049C000340711F40C94C52E08F072C02B3C310511F40C94072E90F52C38310509F492C4F1
:2049E00098F42837310511F40C94892D2937310511F40C948F2D2737310511F00C94D2320B
:204A0000ECE6F4E00C94042D2E3B310509F459C638F42139310511F40C94942D0C94D2329E
:204A2000283C310511F40C94042E293C310511F00C94D2320E94A38A0C94D2322C3D3105B3
:204A400011F40C94B42EB0F42D3C310511F40C940D2E10F40C940A2E2E3C310511F40C948B
:204A60006C2E233D310511F00C94D2320E9404890C94D232223E310511F40C94BF2E48F42A
:204A80002D3D310511F00C94D2320E94E9880C94D2322C3281E0380711F40C94C22E2D3228
:204AA000314011F00C94D2320E94C1870C94D232253FA1E03A0711F40C944C3008F046C00D
:204AC0002239E1E03E0711F40C94CB2E00F5233641E0340711F40C947E3248F42F323140CA
:204AE00011F00C94D2320E948D830C94D232203991E0390711F40C94C82E2139314011F04A
:204B00000C94D23281E00E9433350C94D232243AB1E03B0711F40C94CE2E48F42A39314000
:204B200011F00C94D2320E9464830C94D2322C3A41E0340711F40C943A2F243F314011F0FE
:204B40000C94D2320E946D620C94D232233583E0380711F40C94E831C0F4273FA1E03A0708
:204B600011F40C94543010F40C9451302939E2E03E0711F40C94B12E2A39324011F00C9484
:204B8000D2320E948A890C94D232283743E0340711F40C94953238F42935334011F40C94ED
:204BA0005E300C94D232203A93E0390709F478C2273E334011F40C949A320C94D23280E52D
:204BC0000E948635882361F00E9418366B017C01BB24B394672B682B692B31F4B12C04C0FE
:204BE000B12CC12CD12C760183E50E948635882399F00E944C366B017C01B1100FC0672B4F
:204C0000682B692B59F4F8018081882339F061E0C8010E944F5607C0BB20A9F360E083E020
:204C200093E00E943A5681E0809364050E94208C0E947238C114D104E104F104E9F08091EA
:204C4000501390915113A0915213B0915313C80ED91EEA1EFB1E0E949851DC01CB018C1968
:204C60009D09AE09BF09B7FF1AC0809164058823B1F00E94B2A5EFCF80916405882319F0D4
:204C80000E94B2A5F9CF80916E1060E0882319F084EF92E002C084EE92E00E943A56109271
:204CA00064050C94D23284918F010F5F1F4F882321F00E94B738F801F6CF1092F412109211
:204CC000F31240E050E0BA018FE990E10E947F468BE1EFE9F0E1DE01159601900D928A9586
:204CE000E1F780919D1090919E109C838B838FED93E09A83898340E050E0BE016F5F7F4F5F
:204D000085EA94E00E94F594CE0101960E94704FEDE1F3E084918F010F5F1F4F882311F4EC
:204D20000C94D2320E94B738F801F4CF0E94D0B40C94D23210926E1010926F100C94D232D3
:204D40000E94D7940E948CB60C94D23281E08093FB088093D20F10926E100C94D23280917E
:204D60006F10882311F40C94D23283E50E94863581110C94D5320C94D23280916F10882383
:204D800051F1EDE3F3E084918F010F5F1F4F882321F00E94B738F801F6CF6091EA127091B4
:204DA000EB128091EC129091ED124AE00E94E4388FE20E94B7386091E6127091E7128091E9
:204DC000E8129091E9124AE00E94E4388AE00E94B7380C94D232EFE4F3E084918F010F5F7D
:204DE0001F4F882311F40C94D2320E94B738F801F4CF80916F10882311F40C94D23289E354
:204E000092E10E94844789E392E10E94B64710926D1010926C10E090C204F090C304809169
:204E20006F10882311F40C94D23210926E1080913C12882321F089E392E10E94B6471D8247
:204E400018861C821B828FED93E09A8389838BE990E19093BB108093BA10D7018C918F32FB
:204E600009F067C06FE270E0C7010E9477E38C010F5F1F4FFE0131964F010115110509F405
:204E80005EC06FE270E0C8010E9477E36C01009709F456C00817190708F052C05C01A01A17
:204EA000B10AA501B801CE0180960E94A0E3E0E2F0E0EC0FFD1FEA0DFB1D10828E01005E97
:204EC0001F4FD8018D918D01882319F00E94B738F8CF8AE00E94B7386091BA107091BB1051
:204EE0006115710511F06C5F7F4F21E0AE01405E5F4FCE0105960E94744D811112C0BE0140
:204F0000605E7F4F86E893E00E94BE388EE20E94B7388AE00E94B738C4010E94704F0C94CA
:204F2000D2329092BB108092BA1086010F5F1F4FA4CF8CEB90E19093BB108093BA10870193
:204F40006091BA107091BB106115710511F06C5F7F4F18A21BA222E0A801CE0180960E949B
:204F6000744D811102C0F12C14C0CE0180960E94AC9C8823C1F361E0CE0180960E94684786
:204F8000009789F325EEFC0120831BA20E946368F82ECE0180960E942838FF2009F1E0E635
:204FA000F3E084917F012FEFE21AF20A882321F00E94B738F701F5CFD8018D918D0188233A
:204FC00019F00E94B738F8CF8AE00E94B7381092EA121092EB121092EC121092ED1218C01F
:204FE000EEE6F3E084917F01BFEFEB1AFB0A882321F00E94B738F701F5CFF80181918F0119
:20500000882319F00E94B738F8CF8EE20E94B738CE0101960E94704F0C94D23280916E1089
:2050200081110E94208C0091C2041091C30461E270E0C8010E9477E3009719F08C010F5FDE
:205040001F4F80E50E948635882349F0FF24F3948091BA049091BB048017910708F0F12C9F
:2050600080916F10882311F40C94D2324F2D61E0C8010E942A9783E50E948635882349F0BA
:205080008091BA049091BB048017910710F40C94E5320E94D794F1100C94D2320C94501BBA
:2050A0000E94803D0C94D2320E94A194BCE3CB2ED12CE12CF12CA70196010E9427EC762EBF
:2050C000672ECA01B901A70196010E9427EC6B017C01CA01B90128E130E040E050E00E9449
:2050E00027EC4B015C01C9016DE671E00E941BE08E010F5F1F4F6115710599F06F927F92F7
:20510000DF92CF929F928F929F938F937F936F9382EC93E09F938F931F930F930E941DE8D3
:2051200012C00097B1F06F927F92DF92CF929F928F929F938F9382EB93E09F938F931F93F5
:205140000F930E941DE80FB6F894DEBF0FBECDBF36C081149104A104B10479F06F927F92CA
:20516000DF92CF929F928F9286EA93E09F938F931F930F930E941DE8E6CFC114D104E10495
:20518000F10469F06F927F92DF92CF928EE993E09F938F931F930F930E941DE8D4CF6F9200
:2051A0007F928AE993E09F938F931F930F930E941DE80F900F900F900F900F900F9060E0AF
:2051C000C8010E944F56EBE2F0E284917F01BFEFEB1AFB0A882321F00E94B738F701F5CFCA
:2051E000B80186ED93E00E94BE388AE00E94B7388091DF06882311F40C94D2321092DF06AC
:205200006091E4067091E506072E000C880B990B0E9452E820913702309138024091390282
:2052200050913A020E9493E2181614F00C94D2321092E5061092E4060C94D23283E50E949D
:205240008635882311F40C94D2320E9400367C018F3F910519F010F00C94D23280E50E94D2
:205260008635882339F00E9400368C0197FF04C00C94D2320DE010E0D02EEDEFF2E0C801EA
:205280009927219131912817390731F023E0ED34F207B9F70C94BF32E4EEFEE184918F0186
:2052A0000F5F1F4F882321F00E94B738F801F6CFE3EEF3E084918F010F5F1F4F882311F432
:2052C0000C94D2320E94B738F801F4CF0E948CB60C94D2320E9439CD0C94D2320E9428CD72
:2052E0000C94D2320E941DCC0C94D2320E94ABCB0C94D232109220020C94D23282EF93E0D3
:205300000E9476A580910F1383FF02C00C94D23283E50E948635882311F40C94D2320E94FA
:2053200023360E94A8E17093E3066093E2060C94D23289E690E00E94733C81110C941A33CF
:20534000EBEFF3E084918F010F5F1F4F882321F00E94B738F801F6CF0E9462CC8AE00E9438
:20536000B7380C941A338DE690E00E94733C81110C94D23280910F1383FF02C00C94D232CC
:2053800083E50E9486356A968FAF6A97811105C082E50E9486358823B1F10E9423360E9404
:2053A000A8E17093E5066093E4060E94233620E030E04AEA52E40E944CE8181614F40C9478
:2053C000F6320E94DD9D60E08EE194E00E943A566091E4067091E506072E000C880B990BF5
:2053E0000E9452E8209102073091030740910407509105070E9493E218162CF460E083E17A
:2054000094E00E943A560E94219381E08093200269961CAE1DAE1EAE1FAE699765961CAE08
:205420001DAE1EAE1FAE65972E961FAE2E97A2961FAEA2973CE36E963FAF6E974CE1A696F9
:205440004FAFA69756E4AA965FAFAA97C12CD12CF0E8EF2EAFEBFA2E812C912C54016091F7
:20546000E4067091E506072E000C880B990B0E9452E8162F072F782E692E262F372F482F18
:20548000592FB601C7010E944CE8882359F120910207309103074091040750910507612F5C
:2054A000702F872D962D0E944CE8881F8827881F2E968FAF2E976A968FAD6A978823B1F0B3
:2054C0002E969FAD2E97992389F080912002882311F40C94D23260E08EEF93E00E943A56D9
:2054E0000C94D2321C2D0D2D7E2C6F2C0E9498516B017C01DC01CB0165962CAD3DAD4EAD6A
:205500005FAD6597821B930BA40BB50BB7FD47C0D701C60188519C4FAF4FBF4F65968CAF79
:205520009DAFAEAFBFAF65970E9462CCEFE0F4E084912F019FEF491A590A882321F00E94EE
:20554000B738F201F5CF81149104A104B104D1F0D501C401805F984DAF4FBF4FBC01CD016A
:205560006C197D098E099F0928EE33E040E050E00E9427ECCA01B9010E9465398AE00E94E2
:20558000B7380DC0ECE0F4E084912F01AFEF4A1A5A0A882321F00E94B738F201F5CF0E945E
:2055A000B2A50E947238209002073090030740900407509005079101A201612F702F872DE6
:2055C000962D0E944AE09F7781149104A104B10449F420E030E040E85FE30E944CE887FF8F
:2055E0000BC008C020E030E040E450E40E9493E2181614F4460157012E96BFAD2E97BB23F1
:2056000009F443C069962CAD3DAD4EAD5FAD6997211531054105510541F0D701C601821B4C
:20562000930BA40BB50BB7FD30C09101A201A2966FADA2976E967FAD6E97A6968FADA6970D
:20564000AA969FADAA970E944AE020E030E040EC5FE30E944CE887FD38CFD701C601805A59
:205660009541AF4FBF4F69968CAF9DAFAEAFBFAF6997A2962FAEA2976E963FAE6E97A69677
:205680004FAEA697AA965FAEAA9780912002882309F41BCF81149104A104B10429F4C12EED
:2056A000D02EE72CF62CDBCE90E1C91A97E2D90AE108F108C818D908EA08FB08F7FE05CFFD
:2056C000EECF80910F1383FD6DC760E08FE394E00E943A5683E50E9486356A968FAF6A97CA
:2056E000811105C082E50E9486358823A1F00E9423360E94A8E17093E3066093E2060E94C4
:20570000233620E030E040EA50E40E9493E2181614F40E948CB681E0809320028091EE13E9
:205720008093BC0469961CAE1DAE1EAE1FAE699765961CAE1DAE1EAE1FAE65972E961FAEB3
:205740002E97A2961FAEA297ACE36E96AFAF6E97BCE1A696BFAFA697E6E4AA96EFAFAA97E3
:20576000C12CD12C70E8E72EEFEBFE2E812C912C54016091E2067091E306072E000C880B76
:20578000990B0E9452E8162F072F782E692E262F372F482F592FB601C7010E944CE8882317
:2057A00031F12091FE063091FF064091000750910107612F702F872D962D0E944CE8881F68
:2057C0008827881F2E968FAF2E976A96FFAD6A97FF2389F0882379F080912002882309F475
:2057E000E1C660E08EE294E00E943A56DBC61C2D0D2D7E2C6F2C0E9498516B017C01DC01F2
:20580000CB0165962CAD3DAD4EAD5FAD6597821B930BA40BB50BB7FD47C0D701C60188511E
:205820009C4FAF4FBF4F65968CAF9DAFAEAFBFAF65970E9462CCEBE3F4E084912F019FEFE3
:20584000491A590A882321F00E94B738F201F5CF81149104A104B104D1F0D501C401805FBF
:20586000984DAF4FBF4FBC01CD016C197D098E099F0928EE33E040E050E00E9427ECCA0169
:20588000B9010E9465398AE00E94B7380DC0E8E3F4E084912F01AFEF4A1A5A0A882321F040
:2058A0000E94B738F201F5CF0E94B2A50E9472382090FE063090FF06409000075090010723
:2058C0009101A201612F702F872D962D0E944AE09F7781149104A104B10449F420E030E03A
:2058E00040E85FE30E944CE887FF0BC008C020E030E040E450E40E9493E2181614F4460153
:2059000057012E96BFAD2E97BB2309F443C069962CAD3DAD4EAD5FAD6997211531054105E1
:20592000510541F0D701C601821B930BA40BB50BB7FD30C09101A201A2966FADA2976E962D
:205940007FAD6E97A6968FADA697AA969FADAA970E944AE020E030E040EC5FE30E944CE874
:2059600087FD3ACFD701C601805A9541AF4FBF4F69968CAF9DAFAEAFBFAF6997A2962FAED9
:20598000A2976E963FAE6E97A6964FAEA697AA965FAEAA9780912002882309F41DCF811478
:2059A0009104A104B10429F4C12ED02EE72CF62CE0CE90E1C91A97E2D90AE108F108C81899
:2059C000D908EA08FB08F7FE07CFEECF0E943CCCE9C50E942DCCE6C50E9494CBE3C581E0C1
:2059E0008093C004DFC50E9443CBDCC50E9433CBD9C50E94838BD6C50E94258BD3C560E028
:205A0000C8010E944F56CEC584918F010F5F1F4F882321F00E94B738F801F6CFE4E6F4E0B9
:205A200084918F010F5F1F4F882321F00E94B738F801F6CF649903C00BE114E002C000E296
:205A400014E0D8018D918D01882319F00E94B738F8CF8AE00E94B738ECE5F4E084918F017C
:205A60000F5F1F4F882321F00E94B738F801F6CF8091030180FD03C00BE114E002C000E266
:205A800014E0F80181918F01882319F00E94B738F8CF8AE00E94B738E4E5F4E084918F012E
:205AA0000F5F1F4F882321F00E94B738F801F6CF4B9903C00BE114E002C000E214E0D80107
:205AC0008D918D01882319F00E94B738F8CF8AE00E94B738ECE4F4E084918F010F5F1F4FEE
:205AE000882321F00E94B738F801F6CF4A9903C00BE114E002C000E214E0F80181918F01E2
:205B0000882319F00E94B738F8CF8AE00E94B73849C581E0809347028093221443C51092C0
:205B20004702109222143EC583E5F0D78823F1F00E940036182F8230D0F0E4EEFEE184912F
:205B40008F010F5F1F4F882321F00E94B738F801F6CFE6E8F4E084918F010F5F1F4F882300
:205B600009F420C50E94B738F801F5CF10E088E4CDD78823B1F00E940036E12FF0E08A3A2D
:205B800091053CF0853021E092072CF084E091E002C08AEA90E0EE0FFF1FE651F94F9183AF
:205BA000808386E4B3D78823A1F00E940036E12FF0E0EE0FFF1FE251F94F8F3F910519F0F7
:205BC00014F08FEF90E097FF02C080E090E09183808382E49BD7882309F4E4C40E94003694
:205BE000E12FF0E08530910534F0883891052CF087E890E002C085E090E0EE0FFF1FEA5118
:205C0000F94F91838083CEC40E94C88ACBC40E94818AC8C40E94188AC5C483E577D78823A9
:205C200051F00E9423366093921370939313809394139093951384E569D7882351F00E942B
:205C4000233660938E1370938F13809390139093911382E45BD7882349F0EAD760933014C1
:205C600070933114809332149093331488E54ED7882349F0E8D76093A6137093A713809368
:205C8000A8139093A91389E541D7882349F0DBD76093AA137093AB138093AC139093AD1328
:205CA0008AE534D7882349F0CED76093AE137093AF138093B0139093B11385E427D7882399
:205CC00009F470C4C0D76093B2137093B3138093B4139093B51366C49DE4A92E93E0B92EDA
:205CE0002FEFC22E23E1D22E32EEE32E33E1F32E00E010E0D5018D915D0108D7882309F186
:205D0000A2D72B013C01F70120813181428153810E944AE09B01AC01D6016D917D918D91A9
:205D20009C910E944BE0F6016083718382839383D7014D925D926D927C921397C8010E94B8
:205D400019370F5F1F4FB4E0CB0ED11CE4E0EE0EF11C0330110571F60E94D4360E94258B42
:205D600021C40E94AC891EC483E5D0D6882309F419C446D79093E2028093E10213C40E945F
:205D8000918810C40E945F880DC40E944E870AC40E94208C07C480E066D604C483E5B6D606
:205DA000882379F0F5D6182F0E94F29B811110E080918A05811101C010E0812F0E943E3F5A
:205DC00001C010E0F0901B14111103C0EBE2F0E21AC0F110FBCFE4EEFEE184918F010F5F76
:205DE0001F4F882321F00E94B738F801F6CFE5EDF4E084918F010F5F1F4F882339F30E948A
:205E0000B738F801F6CF84918F010F5F1F4F882321F00E94B738F801F6CFF11003C06EE235
:205E200074E002C06AE274E087EC94E00E94BE388AE00E94B73886E569D6882309F4B2C36B
:205E40008091D3069091D406892B39F080918A05882319F00E94A53EA5C3E8EAF4E0849184
:205E60008F010F5F1F4F882309F49CC30E94B738F801F5CF8FEF282E83E1382E22EE33E19F
:205E80002F963FAF2EAF2F9743ED5FE067965FAF4EAF679700E010E067968EAD9FAD6797E5
:205EA000835D9F406B969FAF8EAF6B976796AEADBFAD67978D916796BFAFAEAF6797882344
:205EC00009F4B2C0F801E85FFD4F2081318142815381F801EC5EFD4F608171818281938164
:205EE0000E944BE020E030E040E05FE30E94B1E89B01AC01F10160817181828193810E9461
:205F000093E218162CF4C801805D9A4F8CD703C060E070E0CB01D1014D905D906D907C9008
:205F20002F96EEADFFAD2F97C080D180E280F380A70196010E944BE0F801EA52FC4E2081FD
:205F40003181428153810E944BE09B01AC01C301B2010E944AE04B015C0120E030E040EABC
:205F600051EC0E9493E2181684F520E030E040EA51E4C501B4010E944CE887FF26C0A50154
:205F80009401C701B6010E944AE04B015C01A70196010E944AE09B01AC01C301B2010E940B
:205FA0004BE0D1016D937D938D939C9313972F96EEADFFAD2F9780829182A282B3826B969A
:205FC0008EAD9FAD6B9735D72FC0E4EEFEE184918F010F5F1F4F882321F00E94B738F801C5
:205FE000F6CFE2E1F5E084918F010F5F1F4F882321F00E94B738F801F6CF61E084E095E09E
:206000000E943A560E94407788E290E09A83898388EC90E099A388A3BE016F5F7F4FCE017D
:2060200080960E9419B6BEC2F4E02F0E311C0C5F1F4F2F962EAD3FAD2F972C5F3F4F2F96F2
:206040003FAF2EAF2F970C30110509F025CFACD60E94258B60E084EF94E00E943A5683E9D7
:2060600092E099A388A308EC10E01A830983BE01605E7F4FCE0101960E9419B68AEB92E031
:2060800099A388A31A830983BE01605E7F4FCE0101960E9419B686C20E94D6640E94A53EA5
:2060A00081C20E9472C97EC283E530D5882319F06FD591E089270E9406C574C281E08093E3
:2060C000231481E423D58823E9F11BE8C12E15E0D12E09E0F02E00E010E05601A00EB11E16
:2060E0002DEC3CEC4CEC5DE3D5016D917D918D919C910E944BE0F501608371838283938305
:206100000C5F1F4F0432110541F7FA94F4E2CF0ED11CF110E0CF2DEC3CEC4CEC5DE360919A
:20612000DA027091DB028091DC029091DD020E944BE06093DA027093DB028093DC02909326
:20614000DD0230C286E4E2D48823E9F1ABE8EA2EA5E0FA2EB9E0DB2E00E010E05701A00EF9
:20616000B11E2DEC3CEC4CEC5DE3D5016D917D918D919C910E944AE0F501608371838283CC
:2061800093830C5F1F4F0432110541F7DA94F4E2EF0EF11CD110E0CF2DEC3CEC4CEC5DE3F5
:2061A0006091DA027091DB028091DC029091DD020E944AE06093DA027093DB028093DC02D9
:2061C0009093DD02EFC182E4A1D48823E9F1EBE8CE2EE5E0DE2EF9E0FF2E00E010E05601E0
:2061E000A00EB11E2DEC3CEC4CE45EE3D5016D917D918D919C910E944BE0F50160837183A9
:20620000828393830C5F1F4F0432110541F7FA94F4E2CF0ED11CF110E0CF2DEC3CEC4CE4B7
:206220005EE36091DA027091DB028091DC029091DD020E944BE06093DA027093DB028093F4
:20624000DC029093DD02AEC183E460D48823E9F16BE8E62E65E0F62E79E0D72E00E010E0D1
:206260005701A00EB11E2AE939E949E95EE3D5016D917D918D919C910E944BE0F5016083CE
:206280007183828393830C5F1F4F0432110541F7DA94F4E2EF0EF11CD110E0CF2AE939E97F
:2062A00049E95EE36091DA027091DB028091DC029091DD020E944BE06093DA027093DB0255
:2062C0008093DC029093DD026DC184E41FD48823E9F14BE8C42E45E0D42E59E0F52E00E035
:2062E00010E05601A00EB11E2AE939E949E95EE3D5016D917D918D919C910E944AE0F50143
:2063000060837183828393830C5F1F4F0432110541F7FA94F4E2CF0ED11CF110E0CF2AE93D
:2063200039E949E95EE36091DA027091DB028091DC029091DD020E944AE06093DA02709390
:20634000DB028093DC029093DD022CC185E4DED3882309F427C12BE8C22E25E0D22E39E0B5
:20636000F32E00E010E05601A00EB11E2DEC3CEC4CE45EE3D5016D917D918D919C910E94D7
:206380004AE0F50160837183828393830C5F1F4F0432110541F7FA94F4E2CF0ED11CF1105F
:2063A000E0CF2DEC3CEC4CE45EE36091DA027091DB028091DC029091DD020E944AE0609323
:2063C000DA027093DB028093DC029093DD02EAC0EBE2F0E284918F010F5F1F4F882319F090
:2063E000C6D6F801F7CFEFE4F5E084918F010F5F1F4F882319F0BBD6F801F7CF80E2B7D626
:206400008AE584D3882309F46AC01DD46B017C0181E08093231420E030E040E252ECC70127
:20642000B6010E9493E287FD4BC020E030E040EA51E4C701B6010E944CE818160CF440C00D
:206440002091DA023091DB024091DC025091DD02C701B6010E944AE01B012C018BE8A82EC5
:2064600085E0B82E99E0792E00E010E04501800E911EA2019101D4016D917D918D919C91FD
:206480000E944BE0F40160837183828393830C5F1F4F0432110551F77A94F4E2AF0EB11C6D
:2064A0007110E2CFC092DA02D092DB02E092DC02F092DD0242E0C701B6010E94AB3C1BC087
:2064C00068ED7FEF87E495E00E945C3C80E24FD664E170E08FE395E00E945C3C0CC0409105
:2064E000DA025091DB026091DC027091DD028CE395E00E941C3D0E946D6254C0E4EEFEE13E
:2065000084918F010F5F1F4F882319F030D6F801F7CFE8E5F5E084918F010F5F1F4F8823B3
:2065200009F440C024D6F801F6CFF894E0E0F0E0199538C081E0809392021092650583E568
:20654000E5D2882309F456C023D381112BC052C02093EE13EBE2F0E284918F010F5F1F4F6D
:20656000882319F004D6F801F7CF6091EE1370E087E695E00E945C3C8AE0F9D513C061E024
:206580008D2D0E945D506E2D8D2D0E941B50B7018D2D0E9499500930110521F4F092E106C6
:2065A000E092E0060E9448D145C037D3AB01BC014093EA125093EB126093EC127093ED12AE
:2065C00089E392E10E947F46EDCF27D3AB01BC014093EA125093EB126093EC127093ED12B4
:2065E00089E392E10E947F460C9449280E948CB60C94E8291092B7141092B8141092B91465
:206600001092BA140E9467D1CDCFEBE2F0E284918F010F5F1F4F882319F0A9D5F801F7CF83
:206620006F2D7E2D89E795E0A9D582E2A0D58AE09ED5B8CFC057DF4F0FB6F894DEBF0FBE73
:20664000CDBFDF91CF911F910F91FF90EF90DF90CF90BF90AF909F908F907F906F905F90D9
:206660004F903F902F90089520913E0530E0F901E75AF84F80832F5F3F4F237033272093CB
:206680003E058091FC088F5F8093FC0808958FB7F8949091B6142091B514291759F0E92F28
:2066A000F0E0EB5CFB4E208130E09F5F9F779093B61402C02FEF3FEF8FBFC90108950F9363
:2066C0001F93CF93DF93EC010E9498510E811F8128853985011511052105310559F52C859B
:2066E0002223A9F13A8521502C8721E0230F2A874D85241301C01A86FE0124E0329FE00DC9
:20670000F11D112406851785208931890A831B832C833D83DC01CB01800F911FA11DB11D9E
:206720008E839F83A887B9878C819D81892B79F0409A0DC0DC01CB01801B910BA20BB30B7D
:20674000B7FD05C040981E821F8218861986DF91CF911F910F9108954F925F926F927F92C9
:20676000AF92BF92CF92DF92EF92FF920F931F93CF93DF935C018B01EA014090E302509012
:20678000E4026090E5027090E602F901C080D180E280F38020E030E0A901C701B6010E9419
:2067A0004CE8811108C0C0900402D0900502E0900602F0900702C092E302D092E402E0929C
:2067C000E502F092E60280E1EFEFF3E1AFEEB3E101900D928A95E1F7C0900002D090010248
:2067E000E0900202F0900302A701960160910714709108148091091490910A140E9493E2B4
:2068000018160CF04AC0A7019601688179818A819B810E9493E21816B4F5F5018081918104
:20682000A281B3818093EF139093F013A093F113B093F213F80180819181A281B3818093D1
:20684000F3139093F413A093F513B093F61388819981AA81BB818093F7139093F813A09379
:20686000F913B093FA13DF91CF911F910F91FF90EF90DF90CF90BF90AF907F906F905F9035
:206880004F900C94D4B6C092F713D092F813E092F913F092FA130E94D4B6C880D980EA80E2
:2068A000FB8020910714309108144091091450910A14C701B6010E9493E2181654F4C09269
:2068C000F713D092F813E092F913F092FA130E94D4B6F50180819181A281B3818093EF1393
:2068E0009093F013A093F113B093F213F80180819181A281B3818093F3139093F413A0931A
:20690000F513B093F6130E94F5A7C880D980EA80FB802091071430910814409109145091E7
:206920000A14C701B6010E944CE887FF0AC0C092F713D092F813E092F913F092FA130E941C
